:0600000019C0FECFFDCF88
:10000600FCCFFBCFFACFF9CFF8CFF7CFF6CFF5CFAE
:10001600F4CFF3CFF2CFF1CFF0CFEFCFEECFEDCFDE
:10002600ECCFEBCF3F065B4F666D7D077F6FF89495
:10003600EE27ECBBF1E0FBBFEBBFE5BF8DE0A2E036
:10004600BB27ED938A95E9F780E092E0A0E6ED9371
:100056000197E9F7EFE5EDBFE2E0EEBFC0EED0E0D5
:1000660000C0E0E0EABBEBBBEFEFE7BBE0E0E8BBDC
:10007600E7E0E4BBE8E3E5BBE0E0E1BBE2BBE3BF0E
:10008600E2BFECBFEFBDEEBDEDBDECBDE7BDE6BD2D
:10009600EBBDEABDE9BDE8BDE2BDE5BDE4BDE3BD3E
:1000A600E9BFE5BFE4BFEAB9E0E8E8B9E0E0E0BFF0
:1000B600E6B9EDB9E6BF5524EEE333D011F4E7E037
:1000C6005E2EE8E2E41511F4E8E05E2EE8E1E415C0
:1000D60011F4E9E05E2EEDE324D011F4E4E05E2EA7
:1000E600E8E2E41511F4E5E05E2EE8E1E41511F42A
:1000F600E6E05E2EEBE315D011F4E1E05E2EE8E2D9
:10010600E41511F4E2E05E2EE8E1E41511F4E3E013
:100116005E2EE52DF0E0E65DFF4F049008BACBCFEA
:10012600FFCFE5BBE3B3E8734E2EE0E3E415089595
:00000001FF
