:0E00000019C0FECFFDCFFCCFFBCFFACFF9CF5A
:10000E00F8CFF7CFF6CFF5CFF4CFF3CFF2CFF1CFC6
:10001E00F0CFEFCFEECFEDCFECCFEBCF000103075C
:10002E000F1F3F7FFF00F894EE27ECBBF1E0FBBF04
:10003E00EBBFE5BF8DE0A2E0BB27ED938A95E9F714
:10004E0080E092E0A0E6ED930197E9F7EFE5EDBFD2
:10005E00E2E0EEBFC0EED0E00FC01A931A2FE12FF0
:10006E00E066E7B983E08A95F1F7369A349BFECFC6
:10007E00349AE5B119910895E0E0EABBEBBBEFEFDE
:10008E00E7BBE0E0E8BBE4BBEFEFE5BBE1BBE0E0E4
:10009E00E2BBE3BFE2BFECBFEFBDEEBDEDBDECBD1D
:1000AE00E7BDE6BDEBBDEABDE9BDE8BDE2BDE5BD20
:1000BE00E4BDE3BDE9BFE5BFE4BFEAB9E0E8E8B9F6
:1000CE00E0E6E7B9E1E8E6B9E0E1E0BFE0E0EDB98E
:1000DE00E6BF989902C0E8D0E5C0999905C0E4D072
:1000EE00A6E9B0E05BD1DEC09A99D9C0A0E0B5DF39
:1000FE004E2E5524A1E0B1DF6E2E77240024041479
:10010E0005041CF4EAD0ECD00CF004C0C09AEBD07D
:10011E00EDD05CC0E2D0F0D01CF4F1D0E1D00CF008
:10012E0005C0C098C19AC298E1D050C0E8D0E4D0C2
:10013E001CF4E8D0D5D00CF005C0C098C198C29A76
:10014E00D5D044C0DFD0D8D01CF4DFD0C9D00CF04D
:10015E0007C0DED0C39AC498C598C698C79836C053
:10016E00D4D0CAD01CF4D6D0BBD00CF007C0D0D09F
:10017E00C398C49AC598C698C79828C0CBD0BCD08F
:10018E001CF4CBD0ADD00CF007C0C2D0C398C4982D
:10019E00C59AC698C7981AC0C0D0AED01CF4C0D0AD
:1001AE009FD00CF007C0B4D0C398C498C598C69A17
:1001BE00C7980CC0B5D0A0D03CF4AAD0C398C498B0
:1001CE00C598C698C79A02C0E0E0E8BB00240614A2
:1001DE0007041CF482D0A7D00CF004C0909AA6D0CD
:1001EE00A8D05CC07AD0ABD01CF489D09CD00CF0D7
:1001FE0005C09098919A92989CD050C080D09FD074
:10020E001CF480D090D00CF005C090989198929AE2
:10021E0090D044C077D093D01CF477D084D00CF01B
:10022E0007C090D0939A949895989698979836C0C0
:10023E006CD085D01CF46ED076D00CF007C082D076
:10024E009398949A95989698979828C063D077D05B
:10025E001CF463D068D00CF007C074D093989498B7
:10026E00959A969897981AC058D069D01CF458D081
:10027E005AD00CF007C066D0939894989598969A99
:10028E0097980CC04DD05BD03CF45CD0939894986A
:10029E0095989698979A02C0E0E0E2BB03C0E0E022
:1002AE00E8BBE2BB16CFFFCFA0E0D7DE4E2E552423
:1002BE00A1E0D3DE6E2E7724D201E0E2F0E05BD037
:1002CE00E65DFF4F049008BAD301E0E2F0E053D0B0
:1002DE00E65DFF4F049002BA0895E0E2F0E0089563
:1002EE004E165F060895C198C2980895C398C49893
:1002FE00C598C698C7980895E415F5050895E0E4E5
:10030E00F0E00895E0E6F0E00895EEE7F0E00895FD
:10031E00C098E9CFE0EAF0E00895E0ECF0E008954F
:10032E00E0EEF0E008956E167F060895919892988B
:10033E000895939894989598969897980895E61599
:10034E00F70508959098F2CFF195E195F040089554
:10035E000024112490E1AA0FBB1F001C111C0E1AC1
:10036E001F0A18F40E0E1F1E01C0A1609A9599F770
:10037E00FD01D001089504D0EBDF0EF4E5DF089502
:10038E00E894F7FF02C0E0DF6894B7FF06C0B195AE
:10039E00A195B04000F8039400FA0895109639F034
:1003AE00A8958AEF90E00197F1F71197C9F7089594
:00000001FF
