:100000001EC049C04BC0FCCFFBCFFACFF9CFF8CF11
:10001000F7CFF6CFF5CFF4CFF3CFF2CFF1CFF0CFCC
:10002000EFCFEECFEDCFECCFEBCF3F065B4F666D62
:100030007C077F6F00000200040034000000F89489
:10004000EE27ECBBF1E0FBBFEBBFE5BF8DE0A2E02C
:10005000BB27ED938A95E9F780E092E0A0E6ED9367
:100060000197E9F7E6E3F0E085919591009761F05B
:10007000A591B59105901590BF01F00105900D92E5
:100080000197E1F7FB01F0CFEFE5EDBFE2E0EEBF56
:10009000C0EED0E017C063D0319602C060D0319777
:1000A0002F01ADE4B0E06AD0E991EFBFF991E99199
:1000B000B991A9919991899179916991F990199042
:1000C00009901895E0E0EABBEBBBEFEFE7BBE8BBBC
:1000D000E0E0E4BBE5BBE1BBE8E0E2BBE0E0E3BFBE
:1000E000E2BFECBFEFBDEEBDEDBDECBDE7BDE6BDD3
:1000F000EBBDEABDE9BDE8BDE2BDE5BDE4BDE3BDE4
:10010000E9BFEBB7E06CEBBFEBE0E5BFE0E0E4BFDD
:10011000E0ECEABFE0E0EAB9E0E8E8B9E0E0E0BF3F
:10012000E6B9EDB9E6BF7894EFEFFFEFE415F5051A
:1001300021F4E9E0F0E02F0107C0E9E0F0E0E41588
:10014000F50514F444245524F201E65DFF4FE491D3
:10015000E095E8BBADE4B0E011D0E6CFFFCF0A9266
:100160001A92FA926A937A938A939A93AA93BA9379
:10017000EA93FA93EFB7EA93F2010895109639F0F3
:10018000A8958AEF90E00197F1F71197C9F70895C4
:00000001FF
