:0400000022C0FECF4D
:10000400FDCFFCCFFBCFFACFF9CFF8CFF7CFF6CFA8
:10001400F5CFF4CFF3CFF2CFF1CFF0CFEFCFEECFD8
:10002400EDCFECCFEBCF3F065B4F666D7D077F6F67
:1000340079003F065B4F666D7D077F6F777C395E85
:100044007971F894EE27ECBBF1E0FBBFEBBFE5BFA1
:100054008DE0A2E0BB27ED938A95E9F780E092E07A
:10006400A0E6ED930197E9F7EFE5EDBFE2E0EEBF1F
:10007400C0EED0E000C0EFEFEABBE0E0EBBBEFEF97
:10008400E7BBE0E0E8BBE4BBEFEFE5BBE0E0E1BBEE
:10009400EFEFE2BBE0E0E3BFE2BFECBFEFBDEEBDDC
:1000A400EDBDECBDE7BDE6BDEBBDEABDE9BDE8BD18
:1000B400E2BDE5BDE4BDE3BDE9BFE5BFE4BFEAB928
:1000C400E0E8E8B9E0E0E0BFE6B9EDB9E6BF84995D
:1000D40013C0E0B3EF704E2EEAE04E1630F4E42D78
:1000E400F0E0E65DFF4F049008BAEAE04E1620F017
:1000F400E4E3F0E0049008BA849B08C0E0B3EF7036
:100104004E2EF0E0EA5CFF4F049008BA9C9911C0AF
:10011400E3B3EF705E2EEAE05E1628F4E52DF0E01E
:10012400E65DFF4F11D0EAE05E1618F0E4E3F0E07C
:100134000BD09C9B07C0E3B3EF705E2EF0E0EA5C4B
:10014400FF4F02D0C4CFFFCFE491E095EBBB0895FD
:00000001FF
