:060000001DC0FECFFDCF84
:10000600FCCFFBCFFACFF9CFF8CFF7CFF6CFF5CFAE
:10001600F4CFF3CFF2CFF1CFF0CFEFCFEECFEDCFDE
:10002600ECCFEBCF00000000020002002A00020025
:1000360004002C000000F894EE27ECBBF1E0FBBFB7
:10004600EBBFE5BF8DE0A2E0BB27ED938A95E9F70C
:1000560080E092E0A0E6ED930197E9F7EEE2F0E0AA
:1000660085919591009761F0A591B59105901590B0
:10007600BF01F00105900D920197E1F7FB01F0CF6A
:10008600EFE5EDBFE2E0EEBFC0EED0E000C0EFEF7F
:10009600EABBE0E0EBBBE7BBEFEFE8BBE0E0E4BBCD
:1000A600E5BBE1BBE2BBE3BFE2BFECBFEFBDEEBD2C
:1000B600EDBDECBDE7BDE6BDEBBDEABDE9BDE8BD06
:1000C600E2BDE5BDE4BDE3BDE9BFE5BFE4BFEAB916
:1000D600E0E8E8B9E0E0E0BFE6B9EDB9E6BF2297AF
:1000E600E894B499689424F8E894B599689425F846
:1000F600E894B699689426F833FE02C024FE01C03F
:1001060011C0E0E0E883A881BB271A9744F4E88190
:10011600B4D0A0E0A083E881EF5FE883F4CF442465
:100126005524AFD034FE02C025FE01C001C0A9D0BF
:1001360035FE02C026FE01C003C0689436F8A6D07C
:1001460033FC02C024FC01C001C0A0D034FC02C0B4
:1001560025FC01C001C09AD035FC02C026FC01C0B6
:1001660001C094D036FC04C0A42DBB271A970CF00E
:1001760049C0E894B099689420F8E894B1996894D5
:1001860021F8E894B299689422F8E894B3996894AF
:1001960023F827FE02C020FE01C003C07AD0A1E0EA
:1001A6007AD030FE02C021FE01C003C072D0A2E0A8
:1001B60072D031FE02C022FE01C003C06AD0A3E0A5
:1001C6006AD032FE02C023FE01C003C062D0A4E0A2
:1001D60062D027FC02C020FC01C001C057D030FC11
:1001E60002C021FC01C001C051D031FC02C022FC7A
:1001F60001C001C04BD032FC02C023FC01C001C0CB
:1002060045D02AC036FE04C0A52DBB271A970CF090
:1002160023C0E52D32D0E081E9835394F0E0E1304C
:10022600A0E0FA0711F4E4E011C0E230A0E0FA071A
:1002360011F4E1E00BC0E330A0E0FA0711F4E5E0C9
:1002460005C0E430A0E0FA0739F4EAE0EBBBA2E32C
:10025600B0E024D0E0E0EBBB20FA27F821FA30F832
:1002660022FA31F823FA32F824FA33F825FA34F868
:1002760026FA35F8229633CFFFCFF0E0E052FF4F53
:100286000895E89436F8A4E1B0E008C0A4E1B0E02F
:1002960005C0E42DF2CFA0834394F8CF109639F031
:1002A600A89580ED97E00197F1F71197C9F70895A2
:00000001FF
