:100000004AC0FECFFDCFFCCFFBCFFACFF9CFF8CF60
:10001000F7CFF6CFF5CFF4CFF3CFF2CFF1CFF0CFCC
:10002000EFCFEECFEDCFECCFEBCF303132333435F5
:10003000363738391027E80364000A000100001041
:100040000001100001000000000202000200010097
:100050000100010002004553434F4D0080C00100E4
:100060000200460002000C0048000100E0004A00C7
:100070000100E1004C000100E3004E000100E5003A
:1000800050000100E60052000100E70054000200A9
:10009000EE005C000000F894EE27ECBBF1E0FBBF43
:1000A000EBBFE5BF8DE0A2E0BB27ED938A95E9F7B2
:1000B00080E092E0A0E6ED930197E9F7EEE5F0E04D
:1000C00085919591009761F0A591B5910590159056
:1000D000BF01F00105900D920197E1F7FB01F0CF10
:1000E000EFE5EDBFE2E0EEBFC0EED0E0EFC08DD2B5
:1000F000E12FE066E7B983E08A95F1F7369A349B01
:10010000FECF349AE5B17FC2809902C0E89401C065
:10011000689420F821FE02C020FE01C019C0E091C1
:10012000ED00E03049F4E1E0E093ED00EAE070D268
:1001300072D2E9E073D208C0E0E0E093ED00E9E0BC
:100140006DD269D2EAE064D2EBD1A0E207D269D2E3
:1001500021FC02C020FC01C001C063D2B4C081995F
:1001600002C0E89401C0689420F821FE02C020FE7D
:1001700001C029C059D289F45BD2A091E100AA3014
:1001800059F45CD2A091E000AA3031F4E1E0E093B0
:10019000E000E9E0E093E10015C059D2A091E7004A
:1001A000AA3011F45AD25DD2A091E600A23021F417
:1001B000A091E700A43009F005C0E0E0E093E6007C
:1001C0004CD255D22ED221FC02C020FC01C001C06D
:1001D00028D279C0829902C0E89401C0689420F8BE
:1001E00021FE02C020FE01C037C01ED2E9F445D274
:1001F000A091E300AA3041F4E0E0E093E300E09155
:10020000E200EF5FE093E200A091E200A13021F470
:10021000A091E300A23009F006C0E0E0E093E30023
:10022000E093E20005D217C02ED2A091E900AA30D7
:1002300091F4E0E0E093E900E091E800EF5FE09303
:10024000E800A091E800A63031F4E0E0E093E80097
:10025000E093E900FCD1E5D121FC02C020FC01C003
:1002600001C0DFD130C0839902C0E89401C0689416
:1002700020F821FE02C020FE01C01FC0D5D1E1F44C
:10028000F6D1A091E500A93041F4E0E0E093E5006B
:10029000E091E400EF5FE093E400A091E400A3307C
:1002A00021F4A091E500A13009F006C0E0E0E09360
:1002B000E400E093E500E1D1B4D121FC02C020FCD0
:1002C00001C001C0AED120FA21F80895E0E0EABBF8
:1002D000EBBBEFEFE7BBE0E0E8BBE4BBE5BBE1BBBA
:1002E000EFEFE2BBE0E0E3BFE2BFECBFEFBDEEBD8E
:1002F000EDBDECBDE7BDE6BDEBBDEABDE9BDE8BDCA
:10030000E2BDE5BDE4BDE3BDE9BFE5BFE4BFEAB9D9
:10031000E0E8E8B9E0E6E7B9E1E8E6B9E0E1E0BF46
:10032000E0E0EDB9E6BFA0E146D1A0E0E0DE5E2E60
:10033000A52DE2E3EA9FF001DF01EFEFF0E0EDD160
:100340004F01E3E6F0E0E815F9050CF44F01F40184
:10035000AAE0B0E0CAD15F01D501E4E6F0E0DDD16A
:100360006E2ED501E4E6F0E0DDD15F01D50191D13B
:10037000D9D14E2ED5018DD1D0D17E2EC5DEEFDE66
:1003800029DF71DFE091EC00EF5FE093EC00AEEE6F
:10039000B2E0E4D1A091EC00AC3321F4E0E0E093D2
:1003A000EC0071D1A091EC00B0E073D1B6D1E09334
:1003B000EA00A091EC00BB276CD1B4D1E093EB0034
:1003C000A091E700AA3011F448D14BD1A091E100EF
:1003D000AA3009F433D1E0E01BD1A2D0ED2D5CD1DD
:1003E000E1E016D19DD0EC2D57D1E2E011D198D0AB
:1003F000E091E00051D1E3E00BD192D0E091E10037
:100400004BD1E4E005D18CD0ADE2A8D0E5E000D13D
:1004100087D0E091E20040D1E6E0FAD081D0E091CF
:10042000E3003AD1E7E0F4D07BD0ADE297D0E8E04A
:10043000EFD076D0E091E4002FD1E9E0E9D070D0A0
:10044000E091E50029D1EBE0E3D06AD0A6E5B0E089
:10045000A3D0E0E0E3D064D0E091E6001DD1E1E07C
:10046000DDD05ED0E091E70017D1E2E0D7D058D0E0
:10047000AAE374D0E3E0D2D053D0E091E8000CD1ED
:10048000E4E0CCD04DD0E091E90006D1E5E0C6D063
:1004900047D0AAE363D0E6E0C1D042D0E091EA00C1
:1004A000FBD0E7E0BBD03CD0E091EB00F5D0EAE038
:1004B000B5D036D0E62DF0D0EBE0B0D031D0E72D7E
:1004C000EBD0ECE0ABD0A7D0EDE0A8D029D0E42D64
:1004D000E3D0EEE0A3D024D0AFED40D0EFE09ED04B
:1004E0001FD0A3E43BD021CFFFCF8FD0E8B3EF7074
:1004F000AE2FE12FE07FEA2BE8BBD3D0C29AD1D058
:10050000C298CFD080C0AA93A881EFDFE881E2959E
:10051000E883A881EADF81E18A95F1F721960895C1
:10052000D0D01A2F0A81E12FF0E0E251FF4FE08195
:10053000E00FAE2FE8DF0093F2001093F300C6D077
:1005400023960895A2E0B1D0ACE0DDDFA1E0ADD00C
:10055000E0E0E093F300E093F200089556D01A3003
:1005600031F0E091F400A091F200AE1758F0E0E015
:10057000EA93A091F300AF5FA093F300D1DF1A30AC
:1005800009F441C0E091F200EF5FE093F200C09AFD
:10059000A12FB9DFC09837C092D09D01F9012F5F1C
:1005A0003F4FE4911E2FE03019F0A12FD7DFF6CF97
:1005B0008BD02496089529D0E7B3E06FE7BBBA9AB1
:1005C000B89AB99AC298C098C1981093F400E12FD4
:1005D000E058E093F000E12FE054E093F100A4E153
:1005E000B0E0BCD066D065D064D0A0E27EDF81E20E
:1005F0008A95F1F7A8E287DFA4E085DFA5E883DF2D
:10060000A6E081DF9FDF199108951A931A2F0895AC
:10061000EA93A0E0089584DFAEE2A0CFEA93A1E0E0
:100620000895A8E2B0E09AC0A091ED00A13008952D
:10063000E091E100EF5FE093E1000895E0E0E093F6
:10064000E100E091E000EF5FE093E0000895E091C9
:10065000E700EF5FE093E7000895E0E0E093E70054
:100660000895E091E600EF5FE093E6000895E091E1
:10067000E500EF5FE093E5000895E091E300EF5FB0
:10068000E093E3000895E091E900EF5FE093E90073
:100690000895EAE0F0E00895F0E0E65DFF4FA491F0
:1006A0005DCF82E08A95F1F708952DDFA3E0B0E0F9
:1006B00055C0A0E31ADF81E28A95F1F708953A93D5
:1006C0002A931A930A9308953B812A8119810881FC
:1006D0000895F195E195F0400895FA9FF02DEB9F74
:1006E000F00DEA9FE02DF10D08952AD0F6DF0EF40B
:1006F000F0DF08950024112490E1AA0FBB1F001C15
:10070000111C0E1A1F0A18F40E0E1F1E01C0A16044
:100710009A9599F7FD01D001089512D0EBDF0EF400
:10072000D8DF0895E894B7FF04C0B195A195B04013
:100730006894F7FDCEDFDEDFFD010EF4CADF089519
:10074000E894F7FF02C0C5DF6894B7FF06C0B19513
:10075000A195B04000F8039400FA0895109639F07E
:10076000A8958AEF90E00197F1F71197C9F70895DE
:00000001FF
