:0C0000001EC0FECFFDCFFCCFFBCFFACF1F
:10000C00F9CFF8CFF7CFF6CFF5CFF4CFF3CFF2CFC0
:10001C00F1CFF0CFEFCFEECFEDCFECCFEBCF3F0664
:10002C005B4F666D7D077F6F00000100020034009E
:10003C000000F894EE27ECBBF1E0FBBFEBBFE5BF93
:10004C008DE0A2E0BB27ED938A95E9F780E092E082
:10005C00A0E6ED930197E9F7E6E3F0E08591959141
:10006C00009761F0A591B59105901590BF01F00135
:10007C0005900D920197E1F7FB01F0CFEFE5EDBF95
:10008C00E2E0EEBFC0EED0E000C0EFEFEABBE0E094
:10009C00EBBBE7BBE8BBEFEFE4BBE0E0E5BBE1BBF0
:1000AC00EFEFE2BBE0E0E3BFE2BFECBFEFBDEEBDC4
:1000BC00EDBDECBDE7BDE6BDEBBDEABDE9BDE8BD00
:1000CC00E2BDE5BDE4BDE3BDE9BFE5BFE4BFEAB910
:1000DC00E0E8E8B9E0E0E0BFE6B9EDB9E6BF809B47
:1000EC0002C0E89401C0689421F820FE02C021FEF1
:1000FC0001C00DC05394A8E2B0E020D0EAE0E515B1
:10010C0011F443945524EAE0E41509F4442420FC4A
:10011C0002C021FC01C003C0A8E2B0E00FD0E52D65
:10012C0008D005BAE42D05D00BBA21FA20F8D7CFA8
:10013C00FFCFF0E0E65DFF4F04900895109639F084
:10014C00A8958AEF90E00197F1F71197C9F70895F8
:00000001FF
