:020000001EC020
:10000200FECFFDCFFCCFFBCFFACFF9CFF8CFF7CFA2
:10001200F6CFF5CFF4CFF3CFF2CFF1CFF0CFEFCFD2
:10002200EECFEDCFECCFEBCF3F065B4F666D7D079A
:100032007F6F04000100020034000000F894EE27F4
:10004200ECBBF1E0FBBFEBBFE5BF8DE0A2E0BB275D
:10005200ED938A95E9F780E092E0A0E6ED930197AF
:10006200E9F7E6E3F0E085919591009761F0A591BB
:10007200B59105901590BF01F00105900D92019781
:10008200E1F7FB01F0CFEFE5EDBFE2E0EEBFC0EE3E
:10009200D0E000C0EFEFEABBE0E0EBBBEFEFE7BB85
:1000A200E0E0E8BBEFEFE4BBE0E0E5BBE1BBEFEF94
:1000B200E2BBE0E0E3BFE2BFECBFEFBDEEBDEDBDF2
:1000C200ECBDE7BDE6BDEBBDEABDE9BDE8BDE2BD05
:1000D200E5BDE4BDE3BDE9BFE5BFE4BFEAB9E0E8E1
:1000E200E8B9E0E0E0BFE6B9EDB9E6BF829902C047
:1000F200E8940EC0819905C0689420F8E89422F82B
:1001020008C0809904C0689420F822F802C021FA3D
:1001120020F820FC1AC0E9E0E71591F4E41561F437
:1001220053944424DF9AE6E0E51511F4442009F0E3
:1001320002C05524442402C04394DF9A772401C0AC
:100142007394A4E6B0E01AD007C022FC02C0DF9A82
:1001520003C0552444247724E42D0BD00BBAE52D9B
:1001620008D008BAE72D05D005BA20FA21F8BECF8B
:10017200FFCFF0E0E65DFF4F04900895109639F04E
:10018200A8958AEF90E00197F1F71197C9F70895C2
:00000001FF
