:060000001AC0FECFFDCF87
:10000600FCCFFBCFFACFF9CFF8CFF7CFF6CFF5CFAE
:10001600F4CFF3CFF2CFF1CFF0CFEFCFEECFEDCFDE
:10002600ECCFEBCF3F065B4F666D7D077F6F6F00B2
:10003600F894EE27ECBBF1E0FBBFEBBFE5BF8DE02C
:10004600A2E0BB27ED938A95E9F780E092E0A0E66F
:10005600ED930197E9F7EFE5EDBFE2E0EEBFC0EE05
:10006600D0E00FC01A931A2FE12FE066E7B983E0BC
:100076008A95F1F7369A349BFECF349AE5B11991F9
:100086000895E0E0EABBEBBBEFEFE7BBE0E0E8BBDF
:10009600EFEFE4BBE0E0E5BBE1BBE2BBE3BFE2BF01
:1000A600ECBFEFBDEEBDEDBDECBDE7BDE6BDEBBD06
:1000B600EABDE9BDE8BDE2BDE5BDE4BDE3BDE9BF1E
:1000C600E5BFE4BFEAB9E0E8E8B9E0E6E7B9E1E8A8
:1000D600E6B9E0E1E0BFE0E0EDB9E6BFA0E0C2DFEF
:1000E6005E2EA2E3EA9FF001DF01EFEFF0E035D0EC
:1000F6004E2E11D0B0E0EAE0F0E02FD011D0E2E0D1
:10010600E5BB09D0BB27EAE0F0E02CD009D0E4E05B
:10011600E5BBE4CFFFCFA7E0B0E040D0A42D089523
:10012600E65DFF4FE491E095E8BB0895F195E19512
:10013600F04008950024112490E1AA0FBB1F001C73
:10014600111C0E1A1F0A18F40E0E1F1E01C0A16004
:100156009A9599F7FD01D001089512D0EBDF0EF4C0
:10016600E5DF0895E894B7FF04C0B195A195B040C6
:100176006894F7FDDBDFDEDFFD010EF4D7DF0895BF
:10018600E894F7FF02C0D2DF6894B7FF06C0B195C6
:10019600A195B04000F8039400FA0895109639F03E
:1001A600A8958AEF90E00197F1F71197C9F708959E
:00000001FF
