:0400000034C062C0E6
:10000400FDCFFCCFFBCFFACFF9CFF8CFF7CFF6CFA8
:10001400F5CFF4CFF3CFF2CFF1CFF0CFEFCFEECFD8
:100024006FC0ECCFEBCF1027E80364000A00010097
:1000340000100001100001003031323334353637FE
:10004400383940792430191202780010C0CFA486C0
:100054008B9290C7808280C0140004014600020085
:1000640018015A000000F894EE27ECBBF1E0FBBF46
:10007400EBBFE5BFF8E1F1BDE1BD8DE0A2E0BB2738
:10008400ED938A95E9F780E092E0A0E6ED9301977D
:10009400E9F7ECE5F0E085919591009761F0A59181
:1000A400B59105901590BF01F00105900D9201974F
:1000B400E1F7FB01F0CFEFE5EDBFE2E0EEBFC0EE0C
:1000C400D0E047C079D3E615F705ACF4662477246D
:1000D4007ED351F082D33196F3D47FD334971CF07E
:1000E400A2E0B0E07ED306C078D33197E9D47DD3C3
:1000F4000AF480D304C0F30131963F01319720C044
:100104005BD3E815F905C4F48824992460D359F025
:1001140077D3C6D43197D4D476D322F471D3E0E024
:10012400F0E0CED408C074D33196CAD471D33497D6
:1001340014F066D356D304C0F40131964F013197BD
:10014400E991EFBFF991E991B991A99199918991B7
:100154001895E0E4EBBBEFEFEABBE8BBE1E8E7BBF3
:10016400E0E6E5BBEFEFE4BBE2BBEBEFE1BBE0E0D5
:10017400E3BFE2BFECBFEFBDEEBDEDBDECBDE7BD3F
:10018400E6BDEBBDEABDE9BDE8BDE2BDE5BDE4BD4C
:10019400E3BDEBB7E066EBBFE2E0E5BFE0E0E4BF60
:1001A400E0E6EABFE0E0E9BFEAB9E0E8E8B9E0E0A8
:1001B400E0BFE6B9EDB9E6BF78942DD371D4319799
:1001C4001CF429D32BD37CD426D36AD42AD33296D5
:1001D4002CD3DF01E1E1F0E03DD427D32BD321D3AD
:1001E40029D3A3E0B0E028D32DD32FD3FED21AF025
:1001F400F4D234970CF0FED206D31AF009D3349714
:1002040014F0FED2EED26624772488249924E0E008
:10021400F0E0E093E200F093E300E093E000F09379
:10022400E100E3E6F0E0E093F600F093F70018D382
:100234001CD320D32ED333D338D3AA24BB24CC2429
:10024400DD2439D3E0E0E093FC00E093FD00E0938B
:10025400FE00E093FF00E0930001E0930101E093CE
:100264000201E0930301E093F200E093F300E091D4
:10027400F200F091F300309709F09CC2A1E0B0E0E5
:100284005DD5AEEEB0E01DD322D315970CF00DD39F
:10029400DF98AF98E8B3E168E8BBE5B3E066E5BB97
:1002A400A0EFB0E00ED318D312970CF004D38FD282
:1002B40041F017D3EC0DFD1DE081EBBBAE98C79860
:1002C40008C00FD3EA0DFB1DE081EBBBAF9AAD98DC
:1002D400C098E091F400F091F500A091EA00B0918B
:1002E400EB00EA17FB070CF00DC1D3D2E091EC0050
:1002F400F091ED00309731F491D2E093EC00F0935B
:10030400ED00FFC0CCD2F3D2D1F5F7D2BB23AAF4CF
:10031400FAD2119769F47CD2309711F0F9D211F422
:1003240091D201C07BD2E093E800F093E90004C0CD
:10033400EAD212970CF0F0D221C0E5D21197D9F489
:1003440067D2309739F4D9D209F4ECD2F2D209F455
:10035400F6D210C05DD2DCD239F4EBD209F4E2D289
:10036400F4D209F4ECD206C053D2F5D219F4EDD28A
:1003740009F4D8D203C0C7D2139704F4A3C0C8D2D7
:10038400B1F5EDD294F0BFD2119751F441D2DF010F
:10039400329711F0EBD211F4C5D201C0ECD204C0F3
:1003A400B2D212970CF0E7D221C0ADD21197D9F492
:1003B4002FD2AED221F4A1D209F4C1D213C028D2D3
:1003C400CAD239F4B6D209F4BAD297D209F4AAD26D
:1003D40009C01ED2D6D231F4B8D209F4B0D2A9D20F
:1003E40009F4A0D203C08FD2129704F06BC0B3D229
:1003F40091F5B5D284F0C9D251F4EFD1DF0132972F
:1004040011F0B4D211F4B7D201C08CD203C0BDD262
:100414000CF488D21FC0B9D2D9F4DFD179D221F437
:100424006CD209F479D213C0D8D195D239F481D2DF
:1004340009F472D262D209F49ED209C0CED1A1D2FB
:1004440031F483D209F468D274D209F494D202C08C
:100454009CD204F437C095D2A9F54FD2BB239AF4A9
:1004640094D269F4BAD1309711F052D211F4D6D1A2
:1004740001C0E8D1E093E800F093E90003C085D21D
:100484000CF45DD21FC081D2D9F4A7D1309739F4CE
:1004940034D209F470D24DD209F43ED210C09DD1A9
:1004A40037D239F446D209F466D24FD209F434D2A1
:1004B40006C093D150D219F448D209F45CD202C0D8
:1004C40064D204F414D231F463D265D2A6EEB0E05F
:1004D40062D217C01DD231F45BD2F3D1A6EEB0E0E4
:1004E4005AD20FC038D231F453D2EBD1A6EEB0E0D9
:1004F400E8D107C046D229F44BD24DD2A6EEB0E0E3
:10050400E0D103C0AAEEB0E0DCD14BD251D2DF017E
:10051400E091E400F091E500EA17FB0729F5E0918A
:10052400E600F091E700309711F497981DC0F0D1E0
:1005340011F4969819C00FD211F4959815C021D2D0
:1005440011F4949811C0E430A0E0FA0711F49398E0
:100554000BC0E530A0E0FA0711F4919805C0E6302D
:10056400A0E0FA0709F4909823D2309751F435D1DA
:10057400309709F490984CD1309709F49798A89A39
:1005840049C0C6D191F429D1309709F4909840D14B
:10059400309709F4979821D1BBD109F4909838D1B8
:1005A400B7D109F49798A99A35C0D5D191F415D14A
:1005B400AFD109F490982CD1ABD109F497980DD10F
:1005C400CAD109F4909824D1C6D109F49798AA9A6B
:1005D40021C0D7D191F401D1BED109F4909818D19A
:1005E400BAD109F49798F9D0CCD109F4909810D1E4
:1005F400C8D109F49798AB9A0DC0E430A0E0FA078B
:1006040049F4EBD0BED109F4909802D1BAD109F4DF
:100614009798AC9AA091E700AA2322F074D1179777
:100624000CF4C8C0BED16FD117977CF0F601319697
:100634006F01E9E0F0E0C1D10CF4C2D1F201F1D0D4
:10064400C5D1F8D0A1E0B0E0F7D0A091E700AA238B
:10065400A2F4F50131965F01E9E0F0E0BDD10CF4BC
:10066400AFD1F201DED0B2D12F01D201EBD0F2D161
:100674003296E093E800F093E900F201A3E1B0E0E0
:10068400D1D1D8D037962F01D201E3E0F0E0E2D106
:100694003196DBD0E8E0F0E09FD124F4E8E0F0E02C
:1006A4008CD10CF007C0E6D09AD1E0E0F0E064E031
:1006B40072E46BC0E7E0F0E08FD124F4E7E0F0E00F
:1006C4007CD10CF007C0D6D08AD1E0E0F0E06CE138
:1006D40072E45BC0E6E0F0E07FD124F4E6E0F0E011
:1006E4006CD10CF007C0C6D07AD1E0E0F0E064E24F
:1006F40072E44BC0E5E0F0E06FD124F4E5E0F0E013
:100704005CD10CF007C0B6D06AD1E0E0F0E064E55B
:1007140072E43BC0E4E0F0E05FD124F4E4E0F0E014
:100724004CD10CF007C0A6D05AD1E0E0F0E06CE761
:1007340072E42BC0E3E0F0E04FD124F4E3E0F0E016
:100744003CD10CF007C096D04AD1E0E0F0E062E979
:1007540072E41BC077D040D11CF474D02ED10CF0BD
:1007640007C088D03CD1E0E0F0E066EA72E40DC056
:1007740055D032D11CF452D020D10CF018C07AD00C
:100784002ED1E0E0F0E06AEB72E446D2DF01CB0167
:10079400E0E0F0E068EC72E48DD2E093F800F093CE
:1007A400F9006093FA007093FB00D2D15ED0A8ECFC
:1007B400B0E0C4D25CCDFFCF8A939A93AA93BA9344
:1007C400EA93FA93EFB7EA93E4E1F0E00895E09155
:1007D400F000F091F10030970895A2E0B0E060D10C
:1007E4000895E3E0F0E06CD10895A3E0B0E05CD1BB
:1007F400EE230895A2E0B0E0E0E0F0E061D10895D6
:10080400A4E0B0E00895A5E0B0E04ED1EE23089551
:10081400F7DF46D10895A0E0B0E00895E1E0F0E00C
:100824000895A7E0B0E0FED00895F5DF49D1F3DFE5
:1008340037D108952F0108951BD1E093E800F09378
:10084400E9000895E2E0F0E00895E093E400F09315
:10085400E500E3E0F0E0E093E600F093E7000895BC
:10086400E091F600F091F7000895E093F400F0931E
:10087400F5000895F5DF6F2F660F660B762F9FD175
:10088400E093F800F093F9006093FA007093FB0092
:100894000895E0E0E093EA00E093EB000895E0E0DF
:1008A400E093EC00E093ED000895E0E0E093EE00C7
:1008B400E093EF000895E0E0E093F000E093F100AE
:1008C4000895ED91FD913196FE93EE930895A091D4
:1008D400EE00B091EF000895A091F000B091F10006
:1008E4000895FADFEAE098D0EC5FFE4F0895E091B6
:1008F400E800F091E90030970895A091E400B091E8
:10090400E50011970895A091E600B091E7000895DD
:10091400E130A0E0FA07089581DFE093E800F09366
:10092400E9000895E3E0F0E0E093E800F093E900E3
:100934000895A091E400B091E5001297089582DF34
:10094400E093E800F093E9000895A091E400B091E9
:10095400E50013970895E230A0E0FA070895A09106
:10096400E400B091E500119615970895FD01E33078
:10097400A0E0FA070895E0E0E093E800E093E900DE
:100984000895E330A0E0FA070895BDDF15970895B0
:10099400A4EEB0E00895ED91FD913197FE93EE93AE
:1009A4000895E2B3EB6FE2BBE5B3E07EE5BB0895E7
:1009B4008EDFE5E0F0E04ED00895EC15FD050895D6
:1009C4002DDFE093F200F093F30008952F01D2019C
:1009D400EBE0F0E03FD00895EA15FB050895A091FF
:1009E400F800B091F9008091FA009091FB0008950D
:1009F400F195E195F0400895F09560957095E19535
:100A0400FF4F6F4F7F4F0895FA9FF02DEB9FF00D2E
:100A1400EA9FE02DF10D08956E2F6A9FF0016B9F00
:100A2400F00D08952FD0F0DF0EF4E2DF08950024D6
:100A3400112490E1AA0FBB1F001C111C0E1A1F0ADF
:100A440018F40E0E1F1E01C0A1609A9599F7FD01BE
:100A5400D0010895E894B7FF04C0B195A195B040C2
:100A64006894F7FDC5DFE3DFFD010EF4C1DF0895EF
:100A7400E894F7FF02C0BCDF6894EA23FB230EF47A
:100A8400B7DF0895E894F7FF02C0B2DF6894B7FFB8
:100A940006C0B195A195B04000F8039400FA0895FA
:100AA400119602D0FE2F1197E199FECFFF93FFB765
:100AB400F894AEBBBFBBE09AEDB3FFBFFF910895BE
:100AC40007D01196EF93EF2F03D0EF91119708956C
:100AD400E19B02C0A895FCCF9FB7F894AEBBBFBB07
:100AE400E09A8DB3E81719F0EDBBE29AE19A9FBF43
:100AF4000895552342F4503811F4E0FF04C03196B0
:100B0400691F791F6BF050E8572711F45F9373C086
:100B14005F3F31F0660F000C57956795752F089568
:100B24005F9300200AF072C06BC050E8192E1522A2
:100B3400880F991F9527550F879550E8072E052292
:100B4400660F771F7527550F67950895689401C040
:100B5400E8945F93F2DF703818F07F3F08F44BC0DD
:100B640056E1571BAAF4519558300EF4593030F021
:100B7400EFEFFFEF6FEF7FE777F91AC07727552381
:100B8400B9F0EE0FFF1F661F771F5A95D1F710C0FB
:100B94007727583028F0EF2FF62F672F5850F9CFCA
:100BA400552331F076956795F795E7955A95D1F7E2
:100BB40000200AF421DF5F910895689401C0E8944D
:100BC400309760407040B1F0002426F0772312F48F
:100BD400009412DF172E7EE1112032F07A95EE0F89
:100BE400FF1F661F111CF9CFEF2FF62F612D5F93A6
:100BF4008ADF5F910895EE27FF27BF015F91089573
:100C0400EFEFFFEF6FE77FEF5F910895EFEFFFEFF7
:100C14006FE77FE75F9108955F9387DF703859F33B
:100C2400903849F301240894791F23F424F3002015
:100C34003AF3ECCF0F921F932F933F934F931127C7
:100C440022279927689FA0018F9F302D410D591F9E
:100C54006B9F300D411D591F8E9F27D0BF9F25D0FC
:100C64006A9F23D0BE9F1DD0AF9F1BD0AE9F110D96
:100C7400291F391F491F591FE32FF42F652F522FA6
:100C84004F913F912F911F910F9066232AF0550F9A
:100C9400EE1FFF1F661F02C073954BF22ADF5F91A0
:100CA4000895100D211D391F02C0200D311D491F4B
:100CB400591F08955F9339DF703821F411200AF425
:100CC4009FCFA4CF903809F496CF01240894970BB2
:100CD4001BF4D4F30020F3CF792F1F932F933F936A
:100CE4004F931124112722273327A90190E2AE172D
:100CF400BF078607410730F0AE1BBF0B860B410BC5
:100D0400089401C08894551F221F331F111CAA1F69
:100D1400BB1F881F441F9A9551F7F901612D4F910C
:100D24003F912F911F91662332F0550FEE1FFF1F45
:100D3400661F7A954BF2DDDE5F910895109639F0C7
:100D4400A8958AEF90E00197F1F71197C9F70895F4
:00000001FF
