:02000000B3C08B
:10000200FECFFDCFFCCFFBCFFACFF9CFF8CFF7CFA2
:10001200F6CFF5CFF4CFF3CFF2CFF1CFF0CFEFCFD2
:10002200EECFEDCFECCFEBCF0000010500000000DA
:1000320000000000FFFFFFFFFFFFFF0001010101C1
:100042000102020202020404040404080808080867
:10005200101010101020202020204040404040006E
:10006200412E363A413F3D003F3F3D1E2E36395D1F
:100072003E363649676B6D007F583A3A3A46433509
:1000820036364F7C7E0E76784936363649793636A4
:1000920056697F7F7F7F7F7F01767676017F003F83
:1000A2003F3F3F7F01767676017F007B776F007F4F
:1000B2007F7F7F7F7F7F007D7B7D007F01767676ED
:1000C200017F003F3F3F3F7F01767676017F413ED1
:1000D2003636457F413E3E3E417F007B776F007F53
:1000E2007F7F7F7F7F7F5F3F3F3F407F413E3E3E3E
:1000F200417F00766656397F413E3636457F00366F
:1001020036363E7F7F7F7F7F7F7F007D7B7D007FD6
:1001120001767676017F00766656397F7E7E007E96
:100122007E7F7F3E003E7F7F007B776F007F0036C1
:1001320036363E7F1E2E363A3C7F7F7F7F7F7F7F23
:10014200010002002A000A0004002C000700E0005F
:1001520036002300E7003E0032000A016200AE00D2
:100162003C0194000000F894EE27ECBBF1E0FBBFE9
:10017200EBBFE5BF8DE0A2E0BB27ED938A95E9F7DF
:1001820080E092E0A0E6ED930197E9F7E2E4F1E086
:1001920085919591009761F0A591B5910590159083
:1001A200BF01F00105900D920197E1F7FB01F0CF3D
:1001B200EFE5EDBFE2E0EEBFC0EED0E032C0CC240E
:1001C200DD246624BB2499248824E1E04E2E539436
:1001D200E89420F8E6E0E51509F4552408952597FA
:1001E2001FD1AD0120E030E08A01FA0135960E17E9
:1001F2001F0794F4F901DE011696EA0FFB1F0F01A7
:10020200ACE3B1E0A00FB11FEC91D001EC932F5FF2
:100212003F4F0F5F1F4FE9CFFE01369608D12B9655
:100222000895E0E0EABBEFEFEBBBE0E0E7BBEFEF06
:10023200E8BBE4BBE0E0E5BBEFEFE1BBE0E0E2BB43
:10024200E3BFE2BFECBFEFBDEEBDEDBDECBDE7BD70
:10025200E6BDEBBDEABDE9BDE8BDE2BDE5BDE4BD7D
:10026200E3BDE9BFE5BFE4BFEAB9E0E8E8B9E0E031
:10027200E0BFE6B9EDB9E6BFE52DF0E0309751F405
:10028200E62DF0E0E052FF4FE081A9D0A4E6B0E015
:10029200D5D04EC0A7D061F4A9D08394E5E0E8158B
:1002A20011F4B3948824E7E0EB1509F4BB2440C0B1
:1002B200A9D039F49BD0B394E7E0EB1509F4BB2441
:1002C20037C0E330A0E0FA0779F490D0A4E6B0E0BA
:1002D200B5D08394E5E0E81511F4B3948824E7E0FF
:1002E200EB1509F4BB2424C0E430A0E0FA0781F442
:1002F200A92DBB2774DF8AD0ECE3E81511F488241A
:100302009394E9EAE91519F4689420F8992410C045
:10031200E92DA5E0EA9FF001E65FFE4F77D0E8E71E
:10032200E81511F488249394EAE0E91509F447DF0B
:1003320045BAE42DF0E056D011F4E2E011C062D0EB
:1003420011F4E4E00DC0E430A0E0FA0711F4E8E0B3
:1003520007C0E830A0E0FA0711F4E0E101C0E1E0F3
:100362004E2E6394E5E0E61521F46624F6013196FB
:100372006F01E52DF0E0309731F4E4E0F0E04DD08C
:1003820009F41DDF1CC02ED031F4E2E3F0E045D0C9
:1003920009F415DF14C036D031F4E2E3F0E03DD0C9
:1003A20009F40DDF0CC0E330A0E0FA0731F4E7E016
:1003B200F0E033D009F403DF02C020FC00DF72BAA0
:1003C200E4E0E51511F4A4E006C0E5E0E51511F45A
:1003D200A5E001C0AAE0B0E031D04ECFFFCFE0955A
:1003E2007E2E0895E130A0E0FA070895EB2DA5E0F6
:1003F200EA9FF001E951FF4FDF01EE27A60DBE1F74
:10040200EC91EDCFE230A0E0FA070895DF01EE278C
:10041200A60DBE1F7C9083940895EC15FD050895EA
:100422005A934A933A932A931A930A9308955D81B1
:100432004C813B812A81198108810895109639F0F7
:10044200A8958AEF90E00197F1F71197C9F70895FF
:00000001FF
