:020000001AC024
:10000200FECFFDCFFCCFFBCFFACFF9CFF8CFF7CFA2
:10001200F6CFF5CFF4CFF3CFF2CFF1CFF0CFEFCFD2
:10002200EECFEDCFECCFEBCF0000000004000400D8
:100032002A000000F894EE27ECBBF1E0FBBFEBBF17
:10004200E5BF8DE0A2E0BB27ED938A95E9F780E05A
:1000520092E0A0E6ED930197E9F7EEE2F0E08591F8
:100062009591009761F0A591B59105901590BF010A
:10007200F00105900D920197E1F7FB01F0CFEFE55A
:10008200EDBFE2E0EEBFC0EED0E000C0EFEFEABBB2
:10009200E0E0EBBBE7BBEFEFE8BBE0E0E4BBE5BBD6
:1000A200E1BBE2BBE3BFE2BFECBFEFBDEEBDEDBD26
:1000B200ECBDE7BDE6BDEBBDEABDE9BDE8BDE2BD15
:1000C200E5BDE4BDE3BDE9BFE5BFE4BFEAB9E0E8F1
:1000D200E8B9E0E0E0BFE6B9EDB9E6BF4424552453
:1000E20066247724E4EFF1E06E167F066CF4B09B91
:1000F20004C0F20131962F013197A1E0B0E046D061
:10010200F30131963F01EECFEFE0F0E039D024F079
:10011200E3E2F0E038D00CF405C0D898D99ADA9826
:10012200DB982CC0E8E2F0E02BD024F0ECE3F0E026
:100132002AD00CF405C0D89AD998DA98DB981EC058
:10014200E1E4F0E01DD024F0E5E5F0E01CD00CF491
:1001520005C0D898D998DA9ADB9810C0EAE5F0E0A1
:100162000FD024F0EEE6F0E00ED00CF405C0D898E3
:10017200D998DA98DB9A02C0E0E0EBBBAFCFFFCFB1
:100182004E165F060895E415F5050895109639F0A8
:10019200A8958AEF90E00197F1F71197C9F70895B2
:00000001FF
