:0600000014C0FECFFDCF8D
:10000600FCCFFBCFFACFF9CFF8CFF7CFF6CFF5CFAE
:10001600F4CFF3CFF2CFF1CFF0CFEFCFEECFEDCFDE
:10002600ECCFEBCFF894EE27ECBBF1E0FBBFEBBFD8
:10003600E5BF8DE0A2E0BB27ED938A95E9F780E066
:1000460092E0A0E6ED930197E9F7EFE5EDBFE2E078
:10005600EEBFC0EED0E00FC01A931A2FE12FE06674
:10006600E7B983E08A95F1F7369A349BFECF349A46
:10007600E5B119910895E0E0EABBEBBBEFEFE7BB12
:10008600E0E0E8BBE4BBE5BBE1BBE2BBE3BFE2BF4C
:10009600ECBFEFBDEEBDEDBDECBDE7BDE6BDEBBD16
:1000A600EABDE9BDE8BDE2BDE5BDE4BDE3BDE9BF2E
:1000B600E5BFE4BFEAB9E0E8E8B9E0E6E7B9E1E8B8
:1000C600E6B9E0E1E0BFE0E0EDB9E6BFA0E0C4DFFD
:1000D600E8BBAAE0B0E002D0F9CFFFCF109639F026
:1000E600A8958AEF90E00197F1F71197C9F708955F
:00000001FF
